:03000000020003F8
:0F00030075819AE4787FF6D8FD75A0FF02062973
:06001200BF0901D35005F7
:05001800EF2430FF227F
:05001D00EF2437FF2273
:030023000205DAF9
:1000260075F010EF84FEEF540FFDBE0901D35007A3
:07003600EE2430F5088005FF
:0C003D00EE2437F508EDB40901D350069D
:06004900ED2430F5092250
:06004F00ED2437F5092243
:05005500BF4100400660
:06005A00EF24C9FF800441
:0A006000EF24D0FFEDB4410040068C
:06006A00ED24C9FD800435
:0C007000ED24D0FDEF75F010A42DFF2250
:10007C007804790CE4F709D8FCE4FCFDBE0004BF5D
:05008C000001D3402239
:10009100EF540FFAED240CF8A6028F03EE75F0046D
:1000A100C313CB13CBD5F0F8FE8B070DED70D80C35
:1000B10080D5E4FBEB240CF88607120012EB240830
:0800C100F8A6070BBB04ED22B9
:1000C900AF08AD091200558F03AF0AAD0B120055E9
:1000D9007523008F24E42524F526EB3523F525AE79
:0400E90025AF2622F7
:0500ED007948773A227A
:0C00F2001200267949A708794AA70922C4
:0C00FE00120026794BA708794CA70922B4
:10010A001201551200267984E7072448F8A608E761
:10011A00072448F8A609E7072448F8760DE70724D4
:05012A0048F8760A22EE
:10012F0079847700798577007E3C7948E4F709DE9A
:02013F00FC22A0
:10014100D2A779857701C299C29B79488799798528
:04015100E770FB2236
:100155007E00751D01798487F0E51DB5F000501A04
:10016500E51D2448F88607E51D2449F88605120093
:0F01750055EE2FFE051D051D80DBEEF404FF2265
:0A018400C299C29B8F993099FD22A9
:10018E008C2D8D2E8A2F8B301200ED1200F27F01F6
:10019E001200FE79847705E52E24FFFFE52D34FF4E
:0C01AE00FE12007CE4FE7F03EE20E7144C
:1001BA00EF2408F87984E7072448F9E6F7EF1F7077
:1001CA00EB1E80E8AE2FAF3012007CE4FE7F03EE18
:0301DA0020E71407
:1001DD00EF2408F87984E7072448F9E6F7EF1F7054
:0A01ED00EB1E80E812010A02014136
:1001F7008C318D328A338B341200ED1200F27F027C
:100207001200FE79847705E53224FFFFE53134FFDC
:0C021700FE12007CE4FE7F03EE20E714E2
:10022300EF2408F87984E7072448F9E6F7EF1F700D
:10023300EB1E80E8AE33AF3412007CE4FE7F03EEA6
:0302430020E7149D
:10024600EF2408F87984E7072448F9E6F7EF1F70EA
:0A025600EB1E80E812010A020141CC
:100260008C358D368A378B381200ED1200F27F0301
:100270001200FE79847705E53624FFFFE53534FF6B
:0C028000FE12007CE4FE7F03EE20E71479
:10028C00EF2408F87984E7072448F9E6F7EF1F70A4
:10029C00EB1E80E8AE37AF3812007CE4FE7F03EE35
:0302AC0020E71434
:1002AF00EF2408F87984E7072448F9E6F7EF1F7081
:0A02BF00EB1E80E812010A02014163
:1002C9008C398D3A8A3B8B3C1200ED1200F27F0487
:1002D9001200FE79847705E53A24FFFFE53934FFFA
:0C02E900FE12007CE4FE7F03EE20E71410
:1002F500EF2408F87984E7072448F9E6F7EF1F703B
:10030500EB1E80E8AE3BAF3C12007CE4FE7F03EEC3
:0303150020E714CA
:10031800EF2408F87984E7072448F9E6F7EF1F7017
:0A032800EB1E80E812010A020141F9
:100332008C458D468B471200ED1200F27F051200AC
:10034200FE79847705E54624FFFFE54534FFFE127A
:0A035200007CE4FE7F03EE20E714B8
:10035C00EF2408F87984E7072448F9E6F7EF1F70D3
:0C036C00EB1E80E8E547B40001D3400917
:090378007EFFE4FF12007C800608
:0E038100E4FEFF12007CE4FE7F03EE20E71492
:10038F00EF2408F87984E7072448F9E6F7EF1F70A0
:0A039F00EB1E80E812010A02014182
:1003A9008C418D428A438B441200ED1200F27F0684
:1003B9001200FE79847705E54224FFFFE54134FF09
:0C03C900FE12007CE4FE7F03EE20E7142F
:1003D500EF2408F87984E7072448F9E6F7EF1F705A
:1003E500EB1E80E8AE43AF4412007CE4FE7F03EED3
:0303F50020E714EA
:1003F800EF2408F87984E7072448F9E6F7EF1F7037
:0A040800EB1E80E812010A02014118
:100412008C178D188A198B1A1200ED1200F27F0FB9
:100422001200FE79847705E51824FFFFE51734FFF3
:0C043200FE12007CE4FE7F03EE20E714C5
:10043E00EF2408F87984E7072448F9E6F7EF1F70F0
:10044E00EB1E80E8AE19AF1A12007CE4FE7F03EEBD
:03045E0020E71480
:10046100EF2408F87984E7072448F9E6F7EF1F70CD
:10047100EB1E80E8AF101200267984E7072448F8C4
:10048100A608E7072448F8A609E4F51BF51CE51BB7
:0C0491006480B48005E51CB51000502705
:10049D00E51C251C2486F80886071200267984E7BA
:1004AD00072448F8A608E7072448F8A609051CE51F
:0D04BD001C70CF051B80CB12010A0201410B
:1004CA008C278D288A298B2A1200ED1200F27F10C0
:1004DA001200FE79847705E52824FFFFE52734FF1B
:0C04EA00FE12007CE4FE7F03EE20E7140D
:1004F600EF2408F87984E7072448F9E6F7EF1F7038
:10050600EB1E80E8AE29AF2A12007CE4FE7F03EEE4
:0305160020E714C7
:10051900EF2408F87984E7072448F9E6F7EF1F7014
:10052900EB1E80E8E51025E0FF1200267984E70735
:100539002448F8A608E7072448F8A609E4F52BF5A6
:0F0549002CE52B6480B48005E52CB510005037ED
:10055800E52C252C2486F8860608860712007C7967
:1005680084E7072448F8A60BE7072448F8A60AE713
:10057800072448F8A609E7072448F8A608052CE543
:0D0588002C70BF052B80BB12010A0201413F
:10059500C2A7758920758DF4758BF4D28E75985028
:0305A500D2AC22B3
:1005A800E4F53DF53EF53FF540E53FB50605E54088
:0505B800B50700501220
:1005BD00053EE53E7002053D0540E54070E6053F10
:0305CD0080E222A7
:0A05D000C299C29B8F993099FD2259
:1005DA00C0E0C0F0C0D0C000C001C006C00730995A
:0105EA0037D9
:1005EB00C29920A70FD007D006D001D000D0D0D011
:1005FB00F0D0E032798487F07885E6B5F0005012C0
:10060B00E4FE7F641205A88607EF062448F8869956
:02061B00800A53
:08061D0012012F80CE3098CBB2
:04062500C29880C730
:10062900120595E4F511F512D2AF7E867FA0120569
:01063900A818
:10063A007F05E4FC7D01AA11AB121203A90512E59C
:10064A001270020511641445117005E4F511F512D2
:10065A007E867FA01205A8E51545167008E4F515F3
:10066A007516018005E4F515F5167E867FA012053C
:10067A00A87F05E4FC7D02FA7B051203A97E867F2A
:06068A00A01205A880AAE1
:00000001FF
