:03000000020142B8
:03000B00020B40A5
:06000E00BF0901D35005FB
:05001400EF2430FF2283
:05001900EF2437FF2277
:03002300020BDBF2
:10002600E0A3FEE0FFEF8DF0A4CFC5F0CCA42CFC3E
:09003600EE60038DF0A42CFE2203
:10003F00C2D1C2D5EE30E707D2D1D2D51200ECEC47
:10004F0030E705B2D11200F412006730D10312006D
:10005F00EC30D5031200F422BC000EBE0032EF8D3F
:10006F00F08420D226FFADF0227B0075F008EF2F31
:10007F00FFEE33FEEB33FBEE9DEB9C4005FBEE9D5D
:10008F00FE0FD5F0E9E4CECDCBCC227EFF7FFF2251
:10009F00EDB410005022EE8DF084FEEF54F045F0D9
:1000AF00C48DF084C4FCEF540FC445F0C48DF084AC
:1000BF00FFADF0E4CC4FFF22EE8DF08420D2CC7E4A
:1000CF0008CEC5F0CDCBEF2FFFED33FD10D7079B3B
:1000DF005005D5F0F1229BFD0FD5F0EA22C3E49F26
:0D00EF00FFE49EFE22C3E49DFDE49CFC2284
:1000FC00E58124FBF9EC6480FCE76480F78005E57E
:10010C008124FBF9E5D054184404F87A04E687F00E
:10011C00B5F00A0908DAF6E4FEFF020133E45004F4
:07012C00FE0480F5F480F1F0
:0F01330074FCD083D0822581F581C082C08322E5
:100142007581B9E4787FF6D8FD900D38E49370029A
:10015200804EC31392D5C31392D1FFA3E493F8B098
:10016200D5402130D505E4A393F5A0E420D102A324
:100172009320D507F608DFF3A380D1F208B800F682
:1001820005A080F2E8030303541F2420F9E8540772
:10019200F8E4D333B80002800333D8FD47F780D8A0
:0601A20075A0FF020D0C28
:0B01A800751800BE0003BF08004003F4
:1001B300E4FF228F038E02EA75F003C313CB13CB44
:1001C300D5F0F88B19EF5407FA74010A8002C33390
:1001D300DAFCFEE519243EF8EE56B40001D3E44000
:0401E3000104FF22F2
:1001E7008E1A8F1BE51AB40005E51BB40800400101
:1001F70022AB1B75F003E51AC313CB13CBD5F0F86D
:100207008B04E51B5407FFFA0A74018002C333DA33
:0E021700FCFEEC243EF8EE56B40001D3400489
:040225007E018002D4
:10022900E4FEBE0105EDB4010122EE7004ED70019A
:0802390022EE7017EDB4011371
:10024100EC243EF874018F030B8002C333DBFCFA0C
:0A025100E64AF6EEB40117ED701452
:10025B00EC243EF874018F030B8002C333DBFCF4F8
:05026B00FAE65AF6223C
:08027000BE0003BF02004004C0
:04027800E4FEFF227F
:0B027C00EF2F2440F8860608860722BA
:100287008E128F138C148D15E512B40005E513B487
:1002970002005015E4C0E0C0E0C014C015FCFD74B6
:0902A700FFFEFF1200FCBF010183
:0102B000222B
:0D02B100E51325132440F8A61408A6152215
:0B02BE00751800BE0003BF08004003DD
:1002C900E4FF228F038E02EA75F003C313CB13CB2D
:1002D900D5F0F88B19EF5407FA74010A8002C33379
:1002E900DAFCFEE519243FF8EE56B40001D3E440E8
:0402F9000104FF22DB
:0802FD00BE0003BF0200400433
:04030500E4FEFF22F1
:0B030900EF2F2444F886060886072228
:1003140075F010EF84FEEF540FFDBE0901D35007B2
:07032400EE2430F5218005F5
:0C032B00EE2437F521EDB40901D3500693
:06033700ED2430F5222246
:06033D00ED2437F5222239
:05034300BF410040066F
:06034800EF24C9FF800450
:0A034E00EF24D0FFEDB4410040069B
:06035800ED24C9FD800444
:0C035E00ED24D0FDEF75F010A42DFF225F
:10036A0078047925E4F709D8FCE4FCFDBE0004BF53
:05037A000001D3402248
:10037F00EF540FFAED2425F8A6028F03EE75F00463
:10038F00C313CB13CBD5F0F8FE8B070DED70D80C44
:10039F0080D5E4FBEB2425F8860712000EEB242111
:0803AF00F8A6070BBB04ED22C8
:1003B700AF21AD221203438F03AF23AD24120343B2
:1003C700751C008F1DE4251DF51FEB351CF51EAEB2
:0403D7001EAF1F2214
:1003DB00750900750A00750B007984B70900500385
:1003EB000204A67984E724FEF7FE2446F88607EE7E
:1003FB002447F886051203438F0BE724FEF71204FC
:08040B00D1EF8F0A650B6003BD
:100413000204A679498707794A8705120343EF8FB8
:0304230009700459
:04042600D200800B75
:08042A00C200E509640560034E
:100432000204A6794B8707794C87051203438F0A7A
:10044200BF0502802D5010E50A14601A14601A14B8
:10045200601A14601A8027E50A24FA601824F760EB
:060462001714601780185A
:030468000205008A
:03046B000205CFB8
:03046E0002069EE5
:0304710002074837
:030474000207F28A
:0304770002087800
:03047A000208BFB6
:03047D000209CAA7
:010480002259
:100481001204D11203147984E7072448F8A621E75E
:10049100072448F8A622E7072448F8760DE7072441
:0504A10048F8760A2274
:1004A60079847700798577007E3C7948E4F709DE20
:0204B600FC2226
:0304B8003000070A
:1004BB00C2B2C2000204A6D2B279857701C299C238
:0604CB009B79488799228D
:1004D1007E00751A01798487F0E51AB5F000501A8B
:1004E100E51A2448F88607E51A2449F88605120317
:0F04F10043EE2FFE051A051A80DBEEF404FF22FE
:10050000E4F513F514F515F50EF51679847707FB68
:10051000EB244DF8EB2421F9E6F70BBB04F21203B0
:07052000B78E0F8F10E4FB02
:10052700EB2451F8EB2421F9E6F70BBB04F2120395
:10053700B78E118F12EF2510F514E511350FF5134E
:10054700850F0C85100DE50CB51305E50DB51400E9
:020557005063EF
:10055900E4F50EF515E50EB408005033E50D250E4A
:0D056900FEE4350CB51304EEB5140050226D
:10057600E50D250EFFE4350CFE1201A88F17BF010D
:010586000D67
:0F0587007401AB0E0B8002C333DBFC4215050E73
:1005960080C6AF151203147984E7072448F8A6210C
:1005A600E7072448F8A6220516E50D2408F50DE40C
:1005B600350CF50C8091AF16120314794DA72179ED
:0905C6004EA7221204810204B8C0
:1005CF00E4F513F514F515F50EF51679847707FB99
:1005DF00EB244DF8EB2421F9E6F70BBB04F21203E1
:0705EF00B78E0F8F10E4FB33
:1005F600EB2451F8EB2421F9E6F70BBB04F21203C6
:10060600B78E118F12EF2510F514E511350FF5137E
:10061600850F0C85100DE50CB51305E50DB5140019
:0206260050631F
:10062800E4F50EF515E50EB408005033E50D250E7A
:0D063800FEE4350CB51304EEB5140050229D
:10064500E50D250EFFE4350CFE1202BE8F17BF0126
:010655000D97
:0F0656007401AB0E0B8002C333DBFC4215050EA3
:1006650080C6AF151203147984E7072448F8A6213C
:10067500E7072448F8A6220516E50D2408F50DE43C
:10068500350CF50C8091AF16120314794DA721791D
:090695004EA7221204810204B8F0
:10069E00E4F50CF50DF50EF50FF51079847707FBE3
:1006AE00EB244DF8EB2421F9E6F70BBB04F2120311
:0706BE00B78E118F12E4FB5F
:1006C500EB2451F8EB2421F9E6F70BBB04F21203F6
:1006D500B78E138F14EF2512F50DE5133511F50CB3
:1006E500851115851216E515B50C05E516B50D0030
:0206F500503E75
:1006F700AE15AF161202708E0E8F0FAE0EAF0F1221
:10070700036A7984E7072448F8A624E7072448F80A
:10071700A623E7072448F8A622E7072448F8A621D6
:10072700051005100516E51670BA051580B6AF1049
:10073700120314794DA721794EA7221204810204CE
:01074700B8F9
:10074800E4F50CF50DF50EF50FF51079847707FB38
:10075800EB244DF8EB2421F9E6F70BBB04F2120366
:07076800B78E118F12E4FBB4
:10076F00EB2451F8EB2421F9E6F70BBB04F212034B
:10077F00B78E138F14EF2512F50DE5133511F50C08
:10078F00851115851216E515B50C05E516B50D0085
:02079F00503ECA
:1007A100AE15AF161202FD8E0E8F0FAE0EAF0F12E9
:1007B100036A7984E7072448F8A624E7072448F860
:1007C100A623E7072448F8A622E7072448F8A6212C
:1007D100051005100516E51670BA051580B6AF109F
:1007E100120314794DA721794EA722120481020424
:0107F100B84F
:1007F200E4F50EF50FF510F511F50CF50DF50CF508
:010802000DE8
:10080300E50D244DF8E50D2421F9E6F7050DE50D79
:0F081300B404ED1203B78E0E8F0FE4F50CF50D44
:10082200E50D2451F8E50D2421F9E6F7050DE50D56
:10083200B404ED1203B78E108F11E5104511601448
:10084200E4FFFDFCC0E0C0E0C010C0117EFF120159
:040852000BBF0019BF
:10085600AE0EAF0FE510B40006E511B40001D3E407
:09086600400104FD1201E78003CA
:09086F000204A61204810204B87F
:05087800E4F50CF50D94
:10087D00E50D244DF8E50D2421F9E6F7050DE50DFF
:0C088D00B404ED1203B78E0E8F0FE4FBD5
:10089900EB2451F8EB2421F9E6F70BBB04F2120320
:1008A900B78E108F11AE0EAF0FAC10AD11120287BB
:0608B9001204810204B8E4
:1008BF00E4F50CF50DF50EF50FF510F511F512F534
:0508CF0013F514F515FE
:1008D400E515244DF8E5152421F9E6F70515E51588
:0C08E400B404ED1203B78E168F17E4FB6E
:1008F000EB2451F8EB2421F9E6F70BBB04F21203C9
:10090000B78E188F19EF2517F50DE5183516F50C6C
:1009100079558707795687051203438F10798477B5
:100920000F79907700E4F514F515E514B40005E5AA
:0609300015B51000502F68
:100936007984E72448F88607E72449F886051203F0
:10094600438F0EE72402F77990E70725E02491F814
:10095600760008A60E0515E51570C9051480C5852F
:100966001614851715E514B50C05E515B50D0050DB
:010976004937
:10097700E515C39517F51175F008E51184F512E52E
:10098700115407F5137401AA130A8002C333DAFC62
:10099700FEE51225122491F909EE57F50FAE14AFB3
:1009A70015E50FB40001D3E4400104FD1201E7058A
:1009B70015E51570AF051480AB7984770D120481A6
:0309C7000204B86F
:0F09CA00E4F50CF50DF50EF50FF510F511F5121E
:1009D900E512244DF8E5122421F9E6F70512E5128E
:0C09E900B404ED1203B78E138F14E4FB6E
:1009F500EB2451F8EB2421F9E6F70BBB04F21203C3
:100A0500B78E158F167955870779568705120343D3
:100A15007990A7077984770F75F0027990E784F7C5
:100A2500E4F511F5127990E7FBE511B40005E5123F
:050A3500B5030050486C
:030A3A0075100034
:100A3D007984870207EA2448F8E5102421F9E6F7BE
:100A4D000510E5103395E0FCE51064044C70E112DF
:100A5D0003B78E0E8F0FAB140514E514700205133A
:100A6D00EBC3332440F8A60E08A60F0512E512704D
:0F0A7D00AC051180A87984770D1204810204B8AA
:100A8C00C2B2758921758DF4758BF4758CF7758AE6
:100A9C0086E4FE7F01FC7D01120287E4F529752AAC
:100AAC0005D2A9D28C759850D2ACD2BCD2BBD28E06
:010ABC002217
:100ABD00E4F536F537F538F5397984E7FBE5386433
:0B0ACD0080B48005E539B50300502916
:100AD800E5392401FFE43538FEE5392448F8E6FD18
:100AE8007C0012002BE5372FF537E5363EF5360545
:100AF80039E53970C9053880C5AE36AF37E4FC7DB5
:100B08001312002B7C037DF112003F8C068D072207
:100B1800E4F53AF53BF53CF53DE53CB50605E53D24
:050B2800B507005012AA
:100B2D00053BE53B7002053A053DE53D70E6053CAC
:030B3D0080E22231
:100B4000C0E0C0F0C0D0C000C002C003C004C005F7
:100B5000C006C007E4FEFF1201A87C008F05758C5B
:100B6000F7758A86E52B6480B48006E52CB4000115
:030B7000D350045B
:040B7300D2B7800B6A
:100B7700EDFBECFEEE4B24FFB392B78529F0B2F7FD
:0E0B8700E52B6480B5F005E52CB52A00400C86
:100B9500E52A24FBF52CE52934FFF52B052CE52C5E
:100BA5007002052B052EE52E7002052DE52DB401ED
:060BB5000CE52EB4F4076C
:100BBB00E4F52DF52EB293C28DD28CD007D006D092
:100BCB0005D004D003D002D000D0D0D0F0D0E0328A
:100BDB00C0E0C0F0C083C082C0D0C000C001C00262
:100BEB00C003C004C005C006C00775080030993E9D
:050BFB00C29920B21BAD
:100C0000D007D006D005D004D003D002D001D00048
:100C1000D0D0D082D083D0F0D0E032798487F07801
:070C200085E6B5F000500B62
:0B0C2700C29BE62448F987990680660E
:0A0C3200C2B21204A680C73098C4B5
:080C3C0020B257E535B4015266
:100C4400859908C298E508700280B17984E7700E2E
:050C5400E508B43A3A86
:090C5900E7072448F8A6088036DC
:100C62007984870607EE2448F8A6088706B70900A4
:020C7200401729
:0E0C7400EE2447F8B60A10EE2446F9B70D0933
:0E0C8200E4F5351203DB7535017984B73C08C3
:0B0C90001204A6020C00C298020C0027
:100C9B00E4FEFF1202708E3A8F3BE4FE7F011202DC
:100CAB00708E3C8F3DE53A20E7186480B48006E5F2
:070CBB003BB40901D3500B0B
:0B0CC200E53B2486F886A0C2A0802637
:0E0CCD00E53A6480B48005E53BB4140050188D
:100CDB00AE3AAF3BE4FC7D0A12003F8C3A8D3BE50C
:100CEB003B2486F886A0D2A0E53C20E7136480B4B1
:100CFB008006E53DB40501D35006853C29853D2A88
:010D0B0022C5
:100D0C00120A8CE4FEFF7D011201E7E4FCFEFF12E7
:100D1C000287D2B7D293C2B27535011204A6D2AFF4
:0C0D2C00120C9B7E037FE8120B1880F471
:100D3800082B000128867E42ECE6D2B69E62FEF2BF
:010D480000AA
:00000001FF
